:10000000FBC00000E5C2000012C1000010C10000EA
:100010000EC100000CC100000AC1000008C10000B0
:1000200006C1000004C100003DC6000075C6000006
:10003000FEC00000FCC00000FAC00000F8C00000D4
:10004000F6C00000F4C00000F2C00000F0C00000E4
:10005000EEC00000ECC00000EAC00000E8C00000F4
:10006000E6C00000E4C00000E2C00000E0C0000004
:10007000DEC00000DCC00000DAC00000D8C0000014
:10008000D6C00000D4C00000D2C00000D0C0000024
:10009000CEC00000CCC00000CAC00000C8C0000034
:1000A000C6C00000C4C00000C2C0000043063F0636
:1000B0003B06370633062F062B06270623061F06A8
:1000C0001B06170613060F060B0607060306FF0599
:1000D000FB05F705F305EF05EB05E705E305DF0590
:1000E000DB05D705D305CF05CB05C705C305BF0580
:1000F000BB05B705B305AF05AB05A705A3059F0570
:100100009B05970593058F058B05870583057F055F
:100110007B05770573056F056B05670563055F054F
:100120005B05570553054F054B0547054305000182
:100130000000DB01120002000098014300030000F0
:10014000940104010309047E0114020309046601F9
:10015000160303090458010C0C033100320033006C
:100160003400350000001603550053004200200003
:10017000530065007200690061006C000000140308
:1001800059006F007500720020004E0061006D0084
:10019000650000000403090409024300020100C0D5
:1001A00032090400000102020100052400100105CB
:1001B000240101010424020605240600010705822A
:1001C0000310004009040100020A000000070503B3
:1001D00002400000070584024000001201000202F4
:1001E000000010C0167A040001010203010001C1E1
:1001F000120180360181360011241FBECFEFDAE0F4
:10020000DEBFCDBF11E0A0E0B1E0ECE7F0E102C05D
:1002100005900D92A830B107D9F722E0A8E0B1E02F
:1002200001C01D92A031B207E1F73CD225C7E8CE4C
:100230002E9A769A80E090E008952E98769880E045
:1002400090E00895CF93DF93EC015BD38F3F2FEFC6
:10025000920719F0888380E001C08FEFDF91CF9182
:1002600008956F927F928F929F92AF92BF92CF929A
:10027000DF92EF92FF920F931F93CF93DF9300D003
:10028000CDB7DEB78C01D7D68983898186FD07C0BB
:10029000898187FF6EC0AA24A39490E702C0A12C95
:1002A00090E6289883E09A83DBD69A8181E0890FD3
:1002B000D7D680E0D5D6E82E80E0D2D6F82E80E0E2
:1002C000CFD6B82E80E0CCD6C82E80E0C9D6D82EA6
:1002D000480185E0880E911C3801EDE06E0E711C1E
:1002E00080E0BED6F40181934F01E615F705C1F712
:1002F000289A40E06A2D8CE26FD62E2D30E0F3FE76
:100300001AC09E2D9695969596959068F8019083C3
:1003100045E0220F331F4A95E1F78F2D8370282B7C
:100320008F2D807EF82EF694F694F6942F29218353
:10033000B282C38213C0F80110821182E294E69463
:1003400087E0E822E28293E0220F331F9A95E1F7DB
:10035000F294F69437E0F3222F2923838D2D8074B5
:10036000F8019081892B80838D2D8F70848380E0AC
:1003700001C08FEF0F900F90DF91CF911F910F91E0
:10038000FF90EF90DF90CF90BF90AF909F908F90B5
:100390007F906F900895AF92BF92CF92DF92EF92CD
:1003A000FF920F931F93CF93DF931F92CDB7DEB7CA
:1003B0007C0148D68983898182FF05C0898184FDBB
:1003C0005AC000E401C000E3F7016081A28073819C
:1003D00067FF16C09181F8E06F9FA0011124292FBB
:1003E000229526952770D22ED42A192F13701860C3
:1003F0009C7188E0989F90011124122BB72E10C099
:10040000E8E0AE9E90011124472F42954695477033
:10041000D42ED22A172F1295110F107EB12CA12C99
:10042000F70184818F706074C82EC62A289882E0F4
:1004300017D681E0800F14D68D2D12D6812F10D6BD
:100440008A2D0ED68B2D0CD68C2D0AD66701F5E0A1
:10045000CF0ED11C8DE0E80EF11CF60181916F01E9
:10046000FFD5CE14DF04C9F7289A41E063E0802F5E
:10047000B3D580E001C08FEF0F90DF91CF911F9136
:100480000F91FF90EF90DF90CF90BF90AF900895C5
:10049000E0D5209A289880ECE3D5289A2FEF81EEBA
:1004A00094E0215080409040E1F700C000008EE0D1
:1004B000B6D5807E803849F563E08AE277D560EF73
:1004C00089E274D566E888E271D564E680E66ED587
:1004D00060E680E76BD541E060E08BE27DD541E0EE
:1004E00061E08BE279D560E08FE060D58FE39CE935
:1004F0000197F1F700C000008EE091D5982F907E13
:1005000081E009F480E0819508958FEF0895982F98
:100510009F71906490937C008072806880937B00D0
:100520008FE99FE00197F1F700C0000087EC80930E
:100530007A0080917A0086FDFCCF8091780020912E
:10054000790090E0922B0895CF92DF92EF92FF9284
:100550000F931F93CF93DF93EC017B018A01690115
:100560008881847088838EE1D2DFF6019183808355
:100570002D9A80E0CCDFF801918380832D988081D3
:100580009181893E934020F088818460888355DE84
:10059000F80180819181892B19F08881826088839C
:1005A00081E0B5DFF70191838083809728F088810F
:1005B000816088832F9A01C02F9880E090E0DF91BE
:1005C000CF911F910F91FF90EF90DF90CF90089502
:1005D0001F920F920FB60F9211242F933F934F93B8
:1005E0005F936F937F938F939F93AF93BF93CF93BB
:1005F000EF93FF93C0910A01CF5FCF70E0910A01A2
:1006000080E1E89FF0011124E05FFE4F8FE08083DE
:10061000809108019091090191838283CF01039613
:1006200020DE8091080190910901019690930901C3
:100630008093080180910B01C813C0930A01FF91B8
:10064000EF91CF91BF91AF919F918F917F916F91DA
:100650005F914F913F912F910F900FBE0F901F9080
:10066000189590910B0180910A01981749F080919B
:100670000B0120E1829FC0011124805F9E4F0895ED
:1006800080E090E0089590910B0180910A01981705
:1006900041F0F89480910B018F5F8F7080930B0174
:1006A00078940895CF93DF93CDB7DEB7A7970FB6B1
:1006B000F894DEBF0FBECDBF1FA21EA21DA21CA2BA
:1006C0001BA21AA219A214BE0FB6F894A895809185
:1006D0006000886180936000109260000FBE80E827
:1006E000809361001092610080E480937C0087E831
:1006F00080937A0050986E9A259A279A269A249A7F
:100700002C9814BC81E085BDE89ADFD0F7D088230F
:10071000E9F385E02F9A2FEF31EE94E0215030403D
:100720009040E1F700C000002F982E9A2FEF31EE95
:1007300094E0215030409040E1F700C000002E9836
:10074000815041F775DD9E012F5D3F4FAE014B5D3E
:100750005F4FBE016D5D7F4FCE018796F5DE0ED1F6
:1007600097DE07E184E1F82E90E3E92E7ADF009727
:1007700029F060E170E035D186DFF8CFE5D088233D
:1007800009F48DC0CE0141965DDD10E09989212FDD
:1007900030E0492F4F7050E0241735075CF4C90151
:1007A000019621E130E02C0F3D1F820F931F4ADD9F
:1007B0001F5FECCF903409F439C058F49032D9F06F
:1007C000903339F19F3009F067C0CE014496E3DDE4
:1007D00013C0913609F43EC018F4913589F05CC01D
:1007E000923709F43EC0903809F056C0F982EB8286
:1007F00065E070E04DC04CDE882349F080EE4DC0CE
:100800008FA18B7F8FA38A89882311F111DD80E16D
:1008100044C080E1C6D098E088E10FB6F894A8956E
:10082000809360000FBE90936000FFCF09838FA17B
:100830008A838BA19CA19B838C838DA19EA19D8388
:100840008E8389A19AA19F83888768E070E020C089
:10085000F4DCDDCF8A89882311F02C9AD8CF2C982C
:10086000D6CF8B898F708B8B8067898310E06B89E3
:10087000161760F48A89810FD2D3E2E0F0E0EC0F22
:10088000FD1FE10FF11D80831F5FF1CF6F5F70E0EF
:10089000CE010196A6D06ACF80EF83D067CFA89B08
:1008A00065CF9E012F5D3F4FAE014B5D5F4FBE0197
:1008B0006D5D7F4FCE01879647DE16BCA89A56CF56
:1008C0008091E80080FFFCCF089581E08093D700FD
:1008D00080EA8093D80082E189BD09B400FEFDCF93
:1008E00080E98093D8001092E00010920F011092DE
:1008F0000C018CE08093E2007894089580910F01C0
:1009000008959FB7F89480910F01882369F083E0E0
:100910008093E9002BE68091E80085FD09C082FF05
:1009200003C02093E800F7CF9FBF8FEF9FEF08959C
:100930008091F1002091E80025FD03C02BE6209373
:10094000E8009FBF90E008952FB7F89480910F01C1
:10095000811102C080E010C083E08093E9008091A3
:10096000F200811109C09091E80092FFF3CF95FD4C
:10097000F1CF9BE69093E8002FBF089580910F017F
:10098000882371F08FB7F89493E09093E9002BE6F9
:100990009091E80095FF03C02093E800F9CF8FBF46
:1009A000089590910F019923D1F09FB7F89424E016
:1009B0002093E9002091E80025FD02C09FBF0FC0F1
:1009C0008093F1008091E80085FD03C08AE3809365
:1009D000E80085E080930E019FBF80E008958FEFCF
:1009E00008950F931F93CF93DF93DC01CB012091E8
:1009F0000F01222371F02FB7F89434E03093E9000F
:100A000030910D01332349F03091E80035FD03C0EA
:100A10002FBF8FEF42C110920D01C4E0D0E41AE362
:100A200005E0009709F438C13091E400375E409149
:100A3000E80045FD12C02FBF2091E400231304C03D
:100A400081E080930D01E5CF20910F01222309F36E
:100A50002FB7F894C093E900EACF3091F200ED2F60
:100A6000E31B4E2F50E08417950708F4E82F8E1BE8
:100A700091094E2F50E04134510508F000C1FA01B0
:100A8000EA5AFF4FF3C23C913093F10011963C912A
:100A90003093F10011963C913093F10011963C9106
:100AA0003093F10011963C913093F10011963C91F6
:100AB0003093F10011963C913093F10011963C91E6
:100AC0003093F10011963C913093F10011963C91D6
:100AD0003093F10011963C913093F10011963C91C6
:100AE0003093F10011963C913093F10011963C91B6
:100AF0003093F10011963C913093F10011963C91A6
:100B00003093F10011963C913093F10011963C9195
:100B10003093F10011963C913093F10011963C9185
:100B20003093F10011963C913093F10011963C9175
:100B30003093F10011963C913093F10011963C9165
:100B40003093F10011963C913093F10011963C9155
:100B50003093F10011963C913093F10011963C9145
:100B60003093F10011963C913093F10011963C9135
:100B70003093F10011963C913093F10011963C9125
:100B80003093F10011963C913093F10011963C9115
:100B90003093F10011963C913093F10011963C9105
:100BA0003093F10011963C913093F10011963C91F5
:100BB0003093F10011963C913093F10011963C91E5
:100BC0003093F10011963C913093F10011963C91D5
:100BD0003093F10011963C913093F10011963C91C5
:100BE0003093F10011963C913093F10011963C91B5
:100BF0003093F10011963C913093F10011963C91A5
:100C00003093F10011963C913093F10011963C9194
:100C10003093F10011963C913093F10011963C9184
:100C20003093F10011963C913093F10011963C9174
:100C30003093F10011963C913093F10011963C9164
:100C40003093F10011963C913093F10011963C9154
:100C50003093F10011963C913093F10011963C9144
:100C60003093F10011963C913093F10011963C9134
:100C70003093F10011963C913093F10011963C9124
:100C80003093F10011963091E80035FF1093E800A1
:100C900000930E012FBFC5CE80E0DF91CF911F9151
:100CA0000F9108951F920F920FB60F9211248F93F8
:100CB0009F938091E1001092E10083FF11C0109298
:100CC000E90091E09093EB001092EC0092E1909398
:100CD000ED0098E09093F00010920F0110920C013B
:100CE00082FF13C080910F01882379F080910E015B
:100CF000882359F0815080930E01811106C084E051
:100D00008093E9008AE38093E8009F918F910F9090
:100D10000FBE0F901F9018951F920F920FB60F9253
:100D20001124EF92FF920F931F932F933F934F93B2
:100D30005F936F937F938F939F93AF93BF93EF9343
:100D4000FF93CF93DF931F92CDB7DEB71092E900E8
:100D50008091E80083FF0FC19091F1008091F10034
:100D60000091F1002091F10010E0122B3091F10080
:100D70002091F100E32EF12CF22A2091F1006091F4
:100D8000F10032EF3093E800863009F046C036E0DB
:100D90008EE291E0FC01459154914017510739F4DE
:100DA000FC013296459154914E155F0521F007964E
:100DB000315081F7E0C0FC01349645915491FC011B
:100DC0003696849130E0362B2F3F310519F010F024
:100DD0002FEF30E0281708F4822F3EEF9091E800C3
:100DE000292F2570D9F392FDC9C0982F813108F0C1
:100DF00090E1FA01292F222331F064916093F100F0
:100E000021503196F8CF490F511D891B3093E800CE
:100E10008111E4CF903111F3B1C0853041F48EEFF0
:100E20008093E8004DDD00680093E300A7C089309F
:100E300059F59111A0C000930F0110920C0110926E
:100E40000E018EEF8093E80041E08DEE91E040933B
:100E5000E9009C012F5F3F4FFC0154915093EB0040
:100E6000552359F0F90124912093EC009C012D5F4A
:100E70003F4F319684918093ED004F5F453011F0E4
:100E8000C901E5CF8EE172C0883049F4903809F08D
:100E900072C016DD80910F018093F10045C0813250
:100EA00071F4913A09F067C00BDDE0E0F1E087E012
:100EB0008E0F91919093F1008E13FBCF35C080324D
:100EC000A1F4913209F057C08091E80082FFFCCF75
:100ED000E0E0F1E087E08E0F9091F10091938E13A6
:100EE000FBCF8BEF8093E8001FC0823239F4913240
:100EF00009F041C000930C01E3DC16C0811118C059
:100F00009983DEDC9981923851F4E092E900809176
:100F1000EB0085FB882780F91092E90001C080E092
:100F20008093F1001092F1008EEF8093E80026C0CC
:100F3000282F2D7F2130F9F49230E9F4012BD9F4D8
:100F40002E2D2F779FEF920F9430A8F49EEF909361
:100F5000E8002093E900833071F089E18093EB0091
:100F600081E090E001C0880F2A95EAF78093EA00BB
:100F70001092EA0003C081E28093EB000F90DF91B2
:100F8000CF91FF91EF91BF91AF919F918F917F9101
:100F90006F915F914F913F912F911F910F91FF9012
:100FA000EF900F900FBE0F901F9018951F93CF9347
:100FB000DF931F92CDB7DEB7182F289882E06983A0
:100FC0004FD0812F4DD06981862F4AD0289A0F901B
:100FD000DF91CF911F9108951F93CF93DF9300D09E
:100FE000CDB7DEB7182F289885E04A83698338D0BB
:100FF000812F36D081E0698101C0880F6A95EAF7B8
:101000002FD081E04A81411101C080E0819528D034
:10101000289A0F900F90DF91CF911F910895CF9351
:10102000C82F289883E01CD08C2F1AD080E018D0CD
:10103000289ACF910895289880EB12D080E010D0A4
:10104000289A0895289880EA0BD080E009D0289A41
:101050000895239884B1866084B981E58CBD089594
:101060008EBD0DB407FEFDCF8EB50895EE0FFF1FA8
:0C1070000590F491E02D0994F894FFCF56
:08107C0000E100000000080083
:00000001FF
